:100000000C94E5000C94050F0C94DE0E0C94B70EC6
:100010000C94900E0C940D010C940D010C94690E2F
:100020000C940D010C940D010C94C3170C943C1806
:100030000C948A110C940D010C940D010C940D017B
:100040000C940D010C94FE0F0C940D010C940D01F9
:100050000C940D010C940D010C940D010C941F0EC9
:100060000C940D010C94D11A0C94AB1A0C940D0144
:100070000C940D010C940D010C940D010C940D01C8
:100080000C940D010C940D010C940D010C940D01B8
:100090000C940D010C940D010C940D010C940D01A8
:1000A0000C940D010C940D010C940D01240D280DE0
:1000B0002C0D320D380D230D230D230D3E0D440D57
:1000C0004A0D500D560D230D1E0D0000000023009B
:1000D000260029002C002F000000000200090F005C
:1000E00000030401000C00000000000000000000FC
:1000F0000000000000000000000000250028002B88
:10010000002E00310000000000240027002A002DEE
:100110000030000404040404030405020202020483
:100120000302020202060606060606040402020292
:1001300004040408020110408040102040804080E8
:10014000080204018040201002011080102040406D
:1001500020080B0002020201000904000001020253
:1001600000000524001001052401010104240206F9
:100170000524060001070581031000400904010061
:10018000020A000000070502024000000705830282
:100190004000000403090412010002EF0201404183
:1001A00023368000010102030141726475696E6F9C
:1001B000204C4C430041726475696E6F204C656F32
:1001C0006E6172646F005E305D3011241FBECFEF30
:1001D000DAE0DEBFCDBF11E0A0E0B1E0E2E2FBE695
:1001E00002C005900D92AC3AB107D9F727E0ACEA0E
:1001F000B1E001C01D92AE31B207E1F710E0C4EEEC
:10020000D0E004C02197FE010E942234C33ED107F2
:10021000C9F70E94D11C0C9484350C9400004F92B5
:100220005F926F927F928F929F92AF92BF92CF9286
:10023000DF92EF92FF920F931F936A017B014801B7
:100240005901CB01BA010E944C312B013C01B7018D
:10025000A601F7FC71C0D501C401B7FC65C0481701
:1002600059076A077B07BCF5C501B4010E944C31F0
:100270009B01AC01C301B2010E9461332B013C011F
:100280009B01AC010E94AB3121ED31E944E650E421
:100290000E94F5329B01AC01C301B2010E9461339F
:1002A00023EC3DEC4FEF54E40E94AB310E94D3337A
:1002B0009B01B7FC4EC0C9011F910F91FF90EF90B9
:1002C000DF90CF90BF90AF909F908F907F906F9076
:1002D0005F904F900895C501B4010E944C31A30175
:1002E00092010E9461334B015C019B01AC010E94B1
:1002F000AB3121ED31E944E650E40E94F5329B0137
:10030000AC01C501B4010E94613323EC3DEC4FEF19
:1003100054E40E94AB310E94D333F7FC15C024E8AB
:1003200033E0261B370BC7CF88279927DC018819B4
:100330009909AA09BB0993CF44275527BA014C193B
:100340005D096E097F0987CF2CE73CEF261B370B31
:10035000B2CF9B01F7FC03C0285F384FACCF2850C9
:100360003740A9CF9B01AA27249FB0013502C001C5
:1003700052039A0B700D811D9A1F34039A0B700D56
:10038000811D9A1F112408952F923F924F925F92E0
:100390006F927F92AF92BF92CF92DF92EF92FF92D5
:1003A0000F931F93CF93DF938C01EB017A01AA8007
:1003B000BB80CE80DF806A847B84FA01608171819A
:1003C000A3010E94B2011B012C01F7016481758118
:1003D000A601C8010E94B201261A370A480A590A22
:1003E00088819981AA81BB81820D931DA41DB51DB1
:1003F00088839983AA83BB83F70162817381A301F8
:10040000C8010E94B2012B013C01F7016481758192
:10041000A501C8010E94B201DC01CB01840D951D2C
:10042000A61DB71D4C805D806E807F80840D951D5C
:10043000A61DB71D8C839D83AE83BF83F7016081AA
:100440007181A501C8010E94B2012B013C01F70195
:1004500062817381A601C8010E94B201AB01BC0197
:10046000440D551D661D771D88859985AA85BB8518
:10047000841B950BA60BB70B88879987AA87BB8728
:10048000DF91CF911F910F91FF90EF90DF90CF9070
:10049000BF90AF907F906F905F904F903F902F9064
:1004A00008950895CF93DF93EC010E94700C88EEBD
:1004B00093E09E8B8D8B80ED97E0988F8F8BDF91F3
:1004C000CF910895CF92DF92EF92FF92CF93DF9377
:1004D000EC0180E791E0998388831D8680E090E0BD
:1004E000A0E8BFE38CAB9DABAEABBFAB0E94900D61
:1004F0000E944A316B017C0120E034E244E759E478
:100500006CA97DA98EA99FA90E94AB319B01AC016A
:10051000C701B6010E94F5320E94DA3368AB79ABAD
:100520008AAB9BAB80E290E00E943C34998B888B35
:1005300080E290E00E943C349B8B8A8B1B861A865B
:10054000DF91CF91FF90EF90DF90CF9008952F92A1
:100550003F924F925F926F927F928F929F92AF9253
:10056000BF92CF92DF92EF92FF920F931F93CF93A0
:10057000DF93CDB7DEB76C970FB6F894DEBF0FBE32
:10058000CDBF1C01609148057091490516161706EC
:100590000CF047C06150710970934905609348059C
:1005A00045EE53E020E030E06F3F01E0700709F4D2
:1005B000ADC3DA01CD90DD90ED90FC90F901399654
:1005C000EE0FFF1FE20DF31D80819181092E000CBB
:1005D000AA0BBB0B8C0D9D1DAE1DBF1DF901EE0FAF
:1005E000FF1FEE0FFF1FEB51FC4F80839183A2830F
:1005F000B383F901EE0FFF1FE45DFC4F19E0B595E1
:10060000A795979587951A95D1F7918380832F5F4A
:100610003F4F4C5F5F4F2330310531F6672B09F4B4
:1006200087C3ACE2B3E0F1017296A101485E5F4F6F
:100630002D913D9180819181821B930B81939193A8
:10064000E417F507A9F70E94900D6B017C018091DA
:10065000E3039091E4038601081B190BB80180E0C5
:1006600090E00E944A3129E134E442E959E30E94D2
:10067000AB31698B7A8B8B8B9C8BD092E403C092CD
:10068000E303F7ED8F2EF3E09F2EA1EDAA2EA3E05A
:10069000BA2E81019E012F5F3F4F38872F83B88A82
:1006A000AF8653E05B87C12CD12C76012601370140
:1006B000D4014D915D916D917C916A017B01E4E0E3
:1006C000F694E794D794C794EA95D1F7EF85F88923
:1006D000C192D192F88BEF87D80152968D919C915F
:1006E00053978C199D09092E000CAA0BBB0B840F84
:1006F000951FA61FB71FF40181939193A193B19306
:100700004F01A601B601C1010E94B201460E571E5B
:10071000681E791ED8011C966D917C911D97072E3D
:10072000000C880B990B0E944C3129893A894B891E
:100730005C890E94AB310E94D333EF81F8856193CD
:100740007193F887EF83FB85F150FB870E5F1F4F96
:10075000F111AECFAE014F5F5F4F6BE171E0C101B0
:100760000E94C401AE014F5F5F4F6FE071E0C101B5
:100770000E94C401FF2477FCFA94E72CD62CC52CE8
:1007800007E6C01A03E0D00A6BE1E62E61E0F62E20
:1007900001E010E0412C512C320122E3C21621E08D
:1007A000D20608F47DC2D5016D917C91F801EE0F5F
:1007B000FF1FE55EFE4F40815181C1010E94B201E1
:1007C000460E571E681E791E0E5F1F4FF2E0AF0ED9
:1007D000B11C24E0E20EF11C07301105F1F6409146
:1007E0002101509122015A8F498F80911D019091D2
:1007F0001E01988B8F87A0912501B0912601BC8F97
:10080000AB8FAC01BC01C1010E94B2016B017C0144
:100810006091250170912601AB01C1010E94B201D6
:1008200097018601060F171F281F391F0F8318878E
:1008300029873A876091210170912201AB01C101A2
:100840000E94B2012F81388549855A85620F731F36
:10085000841F951F0E944C318B019C013595279573
:100860001795079559EFC52EDD24DA945FE1E52E43
:100870005FE5F52EC01AD10AE20AF30A27E336E350
:1008800044E35FE30E94AB319B01AC01C701B601B9
:100890000E94AB319B01AC01C701B6010E94AB3194
:1008A0009B01AC0166EF78E487ED9FE30E94F43290
:1008B0009B01AC01C701B6010E94AB316D8B7E8BF1
:1008C0008F8B988F40911D0150911E015A8B498B3F
:1008D0000091250110912601012E000C220B330BF3
:1008E000052E000C660B770BC1010E940F0168E01A
:1008F00077E0681B790B072E000C880B990B0E9480
:100900004C3120E030E040E251E40E9461336B87DB
:100910007C878D879E876F81788589859A850E94DF
:100920004C314B015C01DC01CB01B595A795979546
:10093000879579EFC72EDD24DA947FE1E72E7FE5F6
:10094000F72EC81AD90AEA0AFB0A27E336E344E37A
:100950005FE3C501B4010E94AB319B01AC01C7014B
:10096000B6010E94AB319B01AC01C701B6010E94E8
:10097000AB319B01AC0166EF78E487ED9FE30E9409
:10098000F4329B01AC01C701B6010E94AB319B015F
:10099000AC01C501B4010E94AB310E94D3338B017D
:1009A0009C014091210150912201052E000C660B03
:1009B000770BC1010E940F0168E077E0681B790B9B
:1009C000072E000C880B990B0E944C3120E030E080
:1009D00040E251E40E9461336B017C01A09115015A
:1009E000B09116012F81388549855A850E94BB3206
:1009F0004B015C01609111017091120149895A8982
:100A0000C1010E94B2016F83788789879A874091DC
:100A10002501509126016091190170911A01C101BF
:100A20000E94B2012F81388549855A85260F371FCC
:100A3000481F591FA0912101B09122010E94BB3291
:100A400095018401061B170B280B390BC901B8014E
:100A50000E944C312D893E894F89588D0E94AB31BF
:100A60000E94D3334B015C0140911D0150911E0146
:100A70006091190170911A01C1010E94B2016F8346
:100A8000788789879A874091250150912601609146
:100A9000110170911201C1010E94B2010F811885EC
:100AA00029853A85061B170B280B390BB901A801BC
:100AB00095018401C1010E940F01885F984FBC011C
:100AC000990F880B990B0E944C3120E030E040E2F6
:100AD00051E40E9461334B015C01C301B2010E94E9
:100AE0004C312D893E894F89588D0E94AB310E942F
:100AF000D3337093D0036093CF0320E030E044EB16
:100B000052E46B857C858D859E850E94453187FDED
:100B10000CC020E030E047E853E46B857C858D8590
:100B20009E850E9409341816A4F420E030E044E3C6
:100B300053E4C701B6010E944531A701960187FD24
:100B4000EEC060E070E087E094E40E94F4326B0154
:100B50007C01A70196016B857C858D859E850E9411
:100B6000AB319B01AC01C501B4010E94AB3120E067
:100B700030E0A9010E94AB3120E030E0A9010E94E1
:100B80004531811174C0C0922E05D0922F05E0929C
:100B90003005F09231052B853C854D855E8520938F
:100BA00032053093330540933405509335058092D8
:100BB000360590923705A0923805B0923905498DD7
:100BC0005A8DBA01550F880B990B0E944C312BEAB4
:100BD0003AEA4AE25EE30E94AB319B01AC0160E07D
:100BE00070E084E393E40E94F43260933A057093DA
:100BF0003B0580933C0590933D05AF85B889BD01C9
:100C0000BB0F880B990B0E944C312BEA3AEA4AE25F
:100C10005EE30E94AB319B01AC0160E070E084E3D5
:100C200093E40E94F43260933E0570933F058093F5
:100C3000400590934105EB8DFC8DBF01FF0F880BA4
:100C4000990B0E944C312BEA3AEA4AE25EE30E9499
:100C5000AB3120E030E044E353E40E94F53260938E
:100C600042057093430580934405909345056C9627
:100C70000FB6F894DEBF0FBECDBFDF91CF911F91AD
:100C80000F91FF90EF90DF90CF90BF90AF909F902B
:100C90008F907F906F905F904F903F902F9008952E
:100CA000F50160817181D70112968D919C91139706
:100CB000FB01E81BF90BCF01092E000CAA0BBB0BA3
:100CC000880F991FAA1FBB1F880F991FAA1FBB1F40
:100CD000880F991FAA1FBB1F880F991FAA1FBB1F30
:100CE000880F991FAA1FBB1F880F991FAA1FBB1F20
:100CF000F7012081318142815381820F931FA41F0C
:100D0000B51F80839183A283B38350CDFA011082F3
:100D1000118212821382C12CD12C76014FCC60E05B
:100D200070E084E393E40E94F4326B017C0111CF04
:100D300080913003909131039250909331038093CE
:100D400030030E94F4116DCCAF92BF92CF92DF922C
:100D5000EF92FF920F931F93CF93DF9300D0CDB705
:100D6000DEB7A0904605B09047051A141B040CF09E
:100D70004AC0A3ECB3E020E030E0A11442E0B406A6
:100D800009F47EC0CD90DD90ED90FC901397A90101
:100D90004A5F5F4F440F551F480F591FFA014081AA
:100DA0005181052E000C660B770B4C0D5D1D6E1DE1
:100DB0007F1D8901000F111F000F111F0D531C4FC4
:100DC000F80140835183628373838901000F111FEF
:100DD0000E5C1C4FE9E07595679557954795EA9528
:100DE000D1F7F801518340832F5F3F4F1496233092
:100DF000310519F6F5013197F0934705E093460563
:100E0000EF2B09F446C002E313E0ADEBB3E07C0145
:100E1000FCE0EF0EF11CF801419151918F01F701B7
:100E200020813181241B350B6D917D91AB014052A6
:100E300053402417350734F0405C594F24173507C9
:100E40000CF4A901F701419351937F01F3E0A33C16
:100E5000BF0709F726E0FC013C96ADEBB3E001903B
:100E60000D922A95E1F70F900F90DF91CF911F918E
:100E70000F91FF90EF90DF90CF90BF90AF900895CB
:100E80001D921D921D921C921397C12CD12C76019C
:100E90007ECF89839A830E94F4119A818981B3CF8E
:100EA0005F926F927F928F929F92AF92BF92CF92FA
:100EB000DF92EF92FF920F931F93CF93DF93EC019A
:100EC00080914D05811110924D058E010E5F1F4FCF
:100ED0007E0186E0E80EF11CA7016BE3C8010E94C9
:100EE0002E1B8111F7C080913903811133C080918D
:100EF0003803882309F404C1888590E0982F882757
:100F00002985822B959587959595879595958795B4
:100F10009B8B8A8B8E8190E0982F88272F81822B44
:100F20009195819591099595879595958795959535
:100F300087959D8B8C8B8A8590E0982F88272B85B1
:100F4000822B9595879595958795959587959F8BF8
:100F50008E8B32C080913803882309F4E9C08885DC
:100F600090E0982F88272985822B959587959595D0
:100F70008795959587959B8B8A8B8E8190E0982F8E
:100F800088272F81822B959587959595879595959F
:100F900087959D8B8C8B8A8590E0982F88272B8551
:100FA000822B919581959109959587959595879532
:100FB000959587959F8B8E8BE881F9810480F581CB
:100FC000E02DCE010995A70163E4C8010E942E1B04
:100FD000811180C0809139038111C5C0809138038F
:100FE0008111EDC08E8190E0982F88272F81822B70
:100FF00091958195910995958795959587959D876B
:101000008C87888590E0982F88272985822B919559
:101010008195910995958795959587959F878E8759
:101020008A8590E0982F88272B85822B9195819532
:1010300091099595879595958795998B888BE881EA
:10104000F9810280F381E02DCE01099586E07E01D1
:101050009CE0E90EF11CF7018E010E5C1F4FD801D8
:1010600001900D928A95E1F787EBC82E83E0D82E88
:101070005E01E6E2AE0EB11C512C93E0892E912C5C
:10108000F701619071907F01F80180819181680E74
:10109000791E619271928F01F60180819181860D96
:1010A000971DB4010E940E34072E000C880B990B7B
:1010B0000E944C31F50161937193819391935F018B
:1010C00075946794F601619271926F015394F3E005
:1010D0005F12D6CF8A819B8190934C0580934B05FC
:1010E000DF91CF911F910F91FF90EF90DF90CF9004
:1010F000BF90AF909F908F907F906F905F9008957A
:10110000888590E0982F88272985822B9195819555
:1011100091099595879595958795959587959B8B3D
:101120008A8B8E8190E0982F88272F81822BFBCE8F
:10113000888590E0982F88272985822B9195819525
:1011400091099595879595958795959587959B8B0D
:101150008A8B8E8190E0982F88272F81822B919502
:101160008195910910CF809138038823D9F18E8120
:1011700090E0982F88272F81822B91958195910956
:1011800095958795959587959D878C87888590E01F
:10119000982F88272985822B9595879595958795F2
:1011A0009F878E878A8590E0982F88272B85822BB2
:1011B0009595879595958795998B888B40CF8E814E
:1011C00090E0982F88272F81822B9595879595956C
:1011D00087959D878C87888590E0982F882729851B
:1011E000822B18CF8E8190E0982F88272F81822B19
:1011F00095958795959587959D878C87888590E0AF
:10120000982F88272985822B919581959109C4CFA4
:1012100002960C94EE10CF92DF92EF92FF920F9312
:101220001F93CF93DF93EC018B85811168C08CA550
:101230009DA5AEA5BFA54A8D5B8D6C8D7D8D8C0166
:101240009D01041B150B260B370BB901A801413278
:10125000514A6740710508F076C00E94900D68AF52
:1012600079AF8AAF9BAF08A919A92AA93BA9601732
:10127000710782079307D0F10E944A316B017C010C
:1012800020E034E244E759E46CA97DA98EA99FA926
:101290000E94AB319B01AC01C701B6010E94F5323F
:1012A0000E94DA3368AB79AB8AAB9BAB6EA17FA1AE
:1012B0007B836A8388A599A59D838C8319A618A62C
:1012C0001FA21EA280E090E00E944A312E813F8141
:1012D000488559850E94F53226E636E646E65FE304
:1012E0000E94AB316E837F8388879987DF91CF918E
:1012F0001F910F91FF90EF90DF90CF9008958CA5F4
:101300009DA5AEA5BFA54AA15BA16CA17DA1841B33
:10131000950BA60BB70B8132914AA740B10508F493
:101320009CCFEE85FF8580E2DF011D928A95E9F76B
:101330008CA59DA5AEA5BFA58AA39BA3ACA3BDA369
:1013400081E08C878ACF21E02B87DDCF7F928F923F
:101350009F92AF92BF92CF92DF92EF92FF920F9344
:101360001F93CF93DF93EC01088919890E94EF0D39
:10137000CE010E94301203970CF483C08CA59DA56A
:10138000AEA5BFA52A8D3B8DAC01421B530B5BA7BD
:101390004AA78A8F9B8FAC8FBD8F1B868D8581114D
:1013A00052C08CAD9DADDC01ED91FC910284F385C2
:1013B000E02D0995F80180838CAD9DADDC01ED91A8
:1013C000FC910284F385E02D0995F80181839081D9
:1013D000903219F4803409F4BDC0CE01DF91CF9171
:1013E0001F910F91FF90EF90DF90CF90BF90AF9043
:1013F0009F908F907F900C94011259962C91599741
:101400005A968C9130E0205C3F4F281B3109C9016E
:101410008F739927892B39F1088919898D8591E076
:10142000980F9D87080F111D8CAD9DADDC01ED91CE
:10143000FC910284F385E02D0995F80180839D8558
:10144000898D981770F5ACADBDADED91FC911197FC
:101450000084F185E02D46E1E134F40771F2CD011D
:101460000995892BC9F6DF91CF911F910F91FF90BC
:10147000EF90DF90CF90BF90AF909F908F907F9034
:101480000895CE01DF91CF911F910F91FF90EF90C2
:10149000DF90CF90BF90AF909F908F907F900C94F3
:1014A0000B091D868EA19FA101969FA38EA38CA5DB
:1014B0009DA5AEA5BFA58E8F9F8FA8A3B9A3CE0172
:1014C0000E945E12882309F4BECF1FAE1EAE1C8A96
:1014D000CE84DF84E888F98800E022E0722E8D88CF
:1014E0009E88A12CB12C10E0000F111F0C0D1D1DAA
:1014F000F701E70DF11D8081218130E0322F222795
:10150000280F311DC901A0E0B0E09C01AD012819F0
:1015100039094A095B09A0E0B8E20E94B0322F897C
:10152000388D40E050E0281939094A095B090E94CA
:101530009132DA01C9018856994DAF4FBF4FF8017A
:10154000918380830C890F5F0C8B739473940E309E
:1015500030F279CF82E08D8786CF0F931F93CF93A0
:10156000DF938C01DC011296ED91FC91139730977B
:10157000C1F1C4ADD5ADE881F9810680F781E02DD8
:10158000CE010995EA89FB8980818F7E8083EA8973
:10159000FB898081877F8083EA89FB8980818F77BF
:1015A0008083EA89FB8980818F7D80838A8D898F02
:1015B000F801C281D381209779F080E791E0998387
:1015C0008883888999890E94D1348A899B890E945D
:1015D000D134CE010E94D134D80113961C921E92B0
:1015E00012978091BA02813009F458C008F447C0BC
:1015F000843079F1853081F480E490E00E943C34BD
:10160000EC010E94620288E691E099838883D80108
:101610001396DC93CE931297F801A281B3811097B1
:1016200049F187EC94E01F969C938E931E978081DE
:101630009181DD969C938E93DC97ED91FC911197AF
:101640000280F381E02DCD01DF91CF911F910F91A9
:10165000099480E490E00E943C34EC010E94620214
:1016600088E591E099838883D8011396DC93CE9323
:101670001297D2CFDF91CF911F910F9108958EE3F2
:1016800090E00E943C34EC010E94620280E591E00F
:1016900099838883F801D383C283BECF80E490E02E
:1016A0000E943C34EC010E94620280E691E0998342
:1016B0008883F801D383C283AFCF80917B008111EF
:1016C0002BC080910E01811139C08EE580937C0082
:1016D00080917A00806480937A0080917A0086FD00
:1016E000FCCF209178008091790030E0382B032ED8
:1016F000000C440B550B64EB7BE281E190E00E940F
:101700009132CA01B9010E944C3120E030E04AE731
:1017100054E40E946133089510927B0081E080932D
:101720000E0190917B00911128C010920E010E9431
:101730005D0B60E070E080E89FEB08959FEF980FED
:1017400090930E0120917B00211122C091112CC099
:101750008EE580937C0080917A00806480937A008B
:1017600080917A0086FDFCCF80917800809179008D
:1017700060E070E080E89FEB089510927B0080931A
:101780000E010E945D0B60E070E080E89FEB089521
:1017900010927B0081E080930E010E945D0B60E05F
:1017A00070E080E89FEB0895825080930E010E94C4
:1017B0005D0B60E070E080E89FEB0895CF93DF93CE
:1017C0001F92CDB7DEB76983DC01ED91FC910280F9
:1017D000F381E02D41E050E0BE016F5F7F4F09953E
:1017E0000F90DF91CF91089583E08093E90080917D
:1017F000F200882319F08AE38093E80008952FB758
:10180000F89483E08093E9008091E80085FF07C0A9
:101810009091F20080E4891B90E02FBF089580E052
:1018200090E02FBF0895FC018485958597FD0BC03E
:101830009FB7F89482E08093E9008091F2009FBF07
:1018400090E0019608959FB7F89482E08093E900B4
:101850008091F2009FBF90E00895089580E090E0AD
:1018600008950895CF93DF93DC01DC96ED91FC9110
:10187000DD97C089D18982E08883C485D5851882A7
:10188000C685D78583E18883108EC489D5898EE289
:101890008883C289D389888180618883C289D389FA
:1018A000888188608883C289D38988818068888399
:1018B0000288F389E02D80818F7D80838CEA90E01F
:1018C00056969C938E93559783E197E058969C93F8
:1018D0008E93579789E159968C93DF91CF91089514
:1018E000CF93DF93DC01DC96ED91FC91DD97C0890D
:1018F000D18982E08883C485D5851882C685D7853D
:1019000080E18883108EC489D58986E08883C28966
:10191000D389988190619883C289D389988198608E
:101920009883C289D3899881906898830288F389C3
:10193000E02D90819F7D908380E259968C93DF917A
:10194000CF910895CF93DF93EC010E94700C83E058
:101950008EAF87E08FAF84E990E09E8B8D8B8CE615
:1019600097E0988F8F8BDF91CF910895CF93DF937E
:10197000EC010E94A20C82E08EAF83E08FAF8FEB70
:1019800090E09E8B8D8B80EF93E0988F8F8BDF9113
:10199000CF9108950F931F93CF93DF931F92CDB7ED
:1019A000DEB7FC012485358537FD07C0C9010F90DE
:1019B000DF91CF911F910F9108958C01CE01019677
:1019C0000E94941C019761F4298130E0F801358769
:1019D0002487C9010F90DF91CF911F910F91089536
:1019E0002FEF3FEFF3CFCF93DF931F92CDB7DEB74B
:1019F000FC018485958597FD08C02FEF3FEF358763
:101A000024870F90DF91CF910895CE0101960E9417
:101A1000941C019731F4898190E00F90DF91CF9170
:101A200008958FEF9FEFEDCF90E0FC013197EF30FD
:101A3000F10548F4EA5AFF4F0C9422348091C20019
:101A4000877F8093C200089584B58F7784BD089501
:101A500084B58F7D84BD0895809180008F778093B9
:101A600080000895809180008F7D8093800008958C
:101A700080918000877F80938000089580919000FE
:101A80008F77809390000895809190008F7D809350
:101A90009000089580919000877F80939000089532
:101AA0008091C0008F778093C00008958091C0001E
:101AB0008F7D8093C00008951F93CF93DF93282FCD
:101AC00030E0F901E852FF4F8491F901EE5CFE4FDE
:101AD000D491F901ED5EFE4FC491CC23A9F0162FED
:101AE00081111BC0EC2FF0E0EE0FFF1FE950FF4FFC
:101AF000A591B4918FB7F89411110AC09C91ED2F64
:101B0000E095E923EC938FBFDF91CF911F9108956A
:101B1000EC91ED2BEC938FBFF7CF0E94140DE2CF29
:101B20003FB7F8948091F8039091F903A091FA03DC
:101B3000B091FB0326B5A89B05C02F3F19F0019675
:101B4000A11DB11D3FBFBA2FA92F982F8827820F43
:101B5000911DA11DB11DBC01CD01660F771F881F0E
:101B6000991F660F771F881F991F08958F929F9264
:101B7000AF92BF92CF92DF92EF92FF924B015C0146
:101B80000E94900D6B017C0181149104A104B104A9
:101B9000E9F00E94900DDC01CB018C199D09AE0982
:101BA000BF09883E9340A105B10598F321E0821A50
:101BB0009108A108B10888EEC80E83E0D81EE11C88
:101BC000F11C81149104A104B10419F7FF90EF9066
:101BD000DF90CF90BF90AF909F908F900895CF935C
:101BE000DF93EC011C860E94900D6CA77DA78EA749
:101BF0009FA7DF91CF9108952FB7F8946091F403D8
:101C00007091F5038091F6039091F7032FBF08952B
:101C10000E94FC0D60935A0570935B0580935C05F0
:101C200090935D050E94FC0D60935F0570936005C5
:101C3000809361059093620510925E0508951F924E
:101C40000F920FB60F9211242F933F938F939F9370
:101C5000AF93BF938091F4039091F503A091F603A5
:101C6000B091F7033091F30323E0230F2D3768F190
:101C700026E8230F0296A11DB11D2093F303809344
:101C8000F4039093F503A093F603B093F7038091C8
:101C9000F8039091F903A091FA03B091FB03019628
:101CA000A11DB11D8093F8039093F903A093FA034B
:101CB000B093FB03BF91AF919F918F913F912F9173
:101CC0000F900FBE0F901F9018950196A11DB11D8A
:101CD000D4CF1F920F920FB60F9211242F933F93E0
:101CE0004F935F936F937F938F939F93AF93BF9324
:101CF000EF93FF93E0910801F09109010995FF919D
:101D0000EF91BF91AF919F918F917F916F915F9173
:101D10004F913F912F910F900FBE0F901F901895EC
:101D20001F920F920FB60F9211242F933F934F9350
:101D30005F936F937F938F939F93AF93BF93EF9333
:101D4000FF93E0910601F09107010995FF91EF9152
:101D5000BF91AF919F918F917F916F915F914F91C3
:101D60003F912F910F900FBE0F901F9018951F92CB
:101D70000F920FB60F9211242F933F934F935F93BF
:101D80006F937F938F939F93AF93BF93EF93FF9343
:101D9000E0910401F09105010995FF91EF91BF9148
:101DA000AF919F918F917F916F915F914F913F91F3
:101DB0002F910F900FBE0F901F9018951F920F92AA
:101DC0000FB60F9211242F933F934F935F936F930E
:101DD0007F938F939F93AF93BF93EF93FF93E09184
:101DE0000201F09103010995FF91EF91BF91AF912D
:101DF0009F918F917F916F915F914F913F912F9123
:101E00000F900FBE0F901F9018951F920F920FB654
:101E10000F9211242F933F934F935F936F937F9370
:101E20008F939F93AF93BF93EF93FF93E091000144
:101E3000F09101010995FF91EF91BF91AF919F91B1
:101E40008F917F916F915F914F913F912F910F9063
:101E50000FBE0F901F901895FC0190819C3008F5E3
:101E6000818128E830E0281B310987FD3395220F56
:101E7000331F220F331F62177307A4F42250310956
:101E8000220F331F4FB7F894892F90E0FC01EE0F1B
:101E9000FF1F8E0F9F1FFC01E859FA4F32832183E9
:101EA0004FBF0895828128E532E0281B310987FD64
:101EB0003395220F331F220F331F62177307F4F677
:101EC0009B01DCCF0F931F93CF93DF93EC018881AD
:101ED0008C3028F0DF91CF911F910F910895DB0195
:101EE000BB27FD01EE5CFE4F9491FD01ED5EFE4FC0
:101EF000A491AA23A9F0B0E0AA0FBB1FFD01EB5FDC
:101F0000FE4F05911491FD01E950FF4FA591B49149
:101F10008FB7F894D801EC919E2B9C938FBF88814A
:101F2000E82FF0E0DF01AA0FBB1FEA0FFB1FE85903
:101F3000FA4F6F739081907C692B608360E272E04E
:101F4000FB01E41BF50BAF01F7FD55C05595479517
:101F500055954795498340E659E0BA01621B730BDA
:101F60009B0177FD45C035952795359527952A83A3
:101F70009BEA899F812D11248695869586957CE024
:101F8000879F90011124A901445F5F4FF901EE0F73
:101F9000FF1FE20FF31FE859FA4F908196FD16C01C
:101FA0002F5F3F4F2417350789F781110FC010921B
:101FB000800082E08093810010928500109284005E
:101FC000B19A80916F00826080936F00888190E069
:101FD000FC01EE0FFF1FE80FF91FE859FA4F80814F
:101FE000806480838881DF91CF911F910F91089544
:101FF0002D5F3F4FB8CF4D5F5F4FA8CF1F920F921D
:102000000FB60F9211242F933F934F935F936F93CB
:102010007F938F939F93AF93BF93EF93FF938091A1
:10202000F20387FDACC02091F20380918C0590E013
:10203000022E000C330B281739070CF47AC02091BC
:10204000F2032F5F2093F2032091F203022E000C83
:10205000330B281739070CF040C08091F2038C3005
:10206000E4F520918400309185008091F203082EE0
:10207000000C990BFC01EE0FFF1F8E0F9F1FFC0140
:10208000E859FA4F81819281820F931F90938900C2
:10209000809388008091F203082E000C990BFC01BC
:1020A000EE0FFF1F8E0F9F1FFC01E859FA4F808132
:1020B00086FF27C08091F203082E000C990BFC01CB
:1020C000EE0FFF1F8E0F9F1FFC01E859FA4F808112
:1020D00061E08F730E945C0D14C080918400909128
:1020E0008500049680349C49E8F0809184009091AA
:1020F0008500049690938900809388008FEF8093E9
:10210000F203FF91EF91BF91AF919F918F917F91DA
:102110006F915F914F913F912F910F900FBE0F9054
:102120001F90189580E49CE9909389008093880023
:10213000E5CF2091F203022E000C330BF901EE0FD4
:10214000FF1F2E0F3F1FF901E859FA4F208126FF8C
:1021500076CF8091F203082E000C990BFC01EE0F54
:10216000FF1F8E0F9F1FFC01E859FA4F808160E02E
:102170008F730E945C0D80918C0590E060CF10926F
:1021800085001092840080918C0590E058CFFC016E
:102190006093BC009FEF02C0915029F02091BC00D9
:1021A00027FFFACF08951092BC008081918101969B
:1021B000918380838FEF9FEF08951F93CF93DF93D9
:1021C000EC01162F64EA0E94C7101093BB0064E86C
:1021D000CE01DF91CF911F910C94C710CF93DF9365
:1021E000EC01589859981092B90082E08093B80099
:1021F00084E08093BC001982188240E86BE6CE012F
:102200000E94031B62E370E080E090E00E94B60D44
:1022100043E06BE6CE010E94031B40E06AE1CE0181
:102220000E94031B48E16BE1CE010E94031B40E1C9
:102230006CE1CE01DF91CF910C94031B81E0809380
:102240005E054BE051E06CE271E08FEA91E00E94A4
:1022500079320C94080E0F931F93CF93DF930E9453
:10226000FC0D00915F051091600520916105309192
:102270006205DC01CB01801B910BA20BB30B893BE8
:102280009B40A105B105E8F11091F1031A30C8F5A2
:10229000C091B802D091B9028091AF019091B00184
:1022A000998388830E94900D6A837B838C839D83AE
:1022B00080916305E091B802F091B90283871F5FB6
:1022C0001093F1038091B2018F5F8093B2010E945D
:1022D0001E118091B1018F5F8431C0F01092B10165
:1022E00080E090E04DE0489F9001499F300D11241F
:1022F000C9018C549E4F9093B9028093B8021092FA
:102300006605DF91CF911F910F9108958093B101E0
:1023100090E0E8CF1F920F920FB60F9211240F9307
:102320001F932F933F934F935F936F937F938F935D
:102330009F93AF93BF93EF93FF93A895809164050C
:102340008823B1F0815080936405FF91EF91BF9194
:10235000AF919F918F917F916F915F914F913F913D
:102360002F911F910F910F900FBE0F901F901895F6
:102370000E94FC0D00915A0510915B0520915C05AF
:1023800030915D05DC01CB01801B910BA20BB30BDF
:1023900081309140A105B105C0F280915E058111A7
:1023A000D4CF0FB6F894A89580916000886180938F
:1023B0006000109260000FBEE091B802F091B90287
:1023C0008485806184878091B3018F5F8093B3019E
:1023D0000E942B1114BE8091600088618093600080
:1023E00088E080936000FFCF81E080935E054EEB34
:1023F00050E060E070E08AEB92E00E9479320C9449
:10240000080ECF93DF93EC0118C059969C91599711
:102410005A962C91892F90E0805C9F4F821B9109E6
:102420008F739927892BC9F08CAD9DADDC01ED919F
:10243000FC910284F385E02D0995ACADBDADED9125
:10244000FC9111970084F185E02D86E1E134F807D5
:10245000E1F2CD010995892B39F7DF91CF910895EC
:10246000CF93DF93EC01ACADBDADED91FC91119735
:102470000084F185E02D86E1E134F807D9F459961E
:102480002C9159975A968C9130E0205C3F4F281B35
:1024900031092F7333272132310524F4C901DF912B
:1024A000CF910895CE010E94011280E090E0DF916B
:1024B000CF910895CD0109959C01EDCFCF92DF9288
:1024C000EF92FF920F931F93CF93DF93EC01098D4F
:1024D00010E0C888D988EA88FB88A801B601C7013E
:1024E0000E946E35892B51F480E0DF91CF911F91CE
:1024F0000F91FF90EF90DF90CF90089588A599A558
:10250000019699A788A78CA59DA5AEA5BFA58AA36E
:102510009BA3ACA3BDA381E08C87A801B601C70132
:102520000E947B3581E0E1CF4F925F926F927F9264
:102530008F929F92AF92BF92CF92DF92EF92FF92D3
:102540000F931F93CF93DF93EC010E94EF0DCE0109
:102550000E943012892BE9F4EDC08D85998D891781
:1025600008F053C00889198991E0980F9D87080FDA
:10257000111D8CAD9DADDC01ED91FC910284F385C4
:10258000E02D0995F80180839D85898D981708F0C5
:1025900044C0ACADBDADED91FC9111970084F185C7
:1025A000E02D36E1E134F30709F0AEC059969C9175
:1025B00059975A962C91892F90E0805C9F4F821BEF
:1025C00091098F739927892B09F4A3C04CA55DA5A8
:1025D0006EA57FA58A8D9B8D9A01281B390BC90199
:1025E0003BA72AA74A8F5B8F6C8F7D8F1B8689380C
:1025F000934108F4B2CF8D85803109F4AFCF1D86A9
:1026000080E0998D891708F4ADCFCE010E940112A8
:102610009D85898D981708F4BCCF8EA19FA1019646
:102620009FA38EA38CA59DA5AEA5BFA58E8F9F8FC2
:10263000A8A3B9A3CE010E945E12882309F4A9CFF2
:10264000398D832F90E004970CF4A3CFE888F988A4
:10265000F3E0EF0EF11C53E0C52ED12C0CC0F2E0DC
:10266000CF0ED11C22E0E20EF11C832F90E0C816A1
:10267000D9060CF08ECFF70131972081822F90E0A0
:102680000EAC02C0959587950A94E2F78F708D3055
:1026900030F78D889E88A12CB12C082F10E0C8013E
:1026A000880F991F0E851F85080F191F8FAD2823CE
:1026B00030E0322F2227D7018C91280F311DC9011C
:1026C000A0E0B0E09C01AD01281939094A095B0975
:1026D000A0E0B8E20E94B0322F89388D2901612C28
:1026E000712CA3019201281939094A095B090E943A
:1026F0009132DA01C9018856994DAF4FBF4FF801A9
:1027000091838083398DABCFCD010995892B09F059
:102710005DCFDF91CF911F910F91FF90EF90DF90F0
:10272000CF90BF90AF909F908F907F906F905F9071
:102730004F900895CE01DF91CF911F910F91FF909F
:10274000EF90DF90CF90BF90AF909F908F907F9051
:102750006F905F904F900C940B092F923F924F9285
:102760005F926F927F928F929F92AF92BF92CF9221
:10277000DF92EF92FF920F931F93CF93DF9300D0DE
:1027800000D0CDB7DEB71C010E94EF0DC1010E9441
:102790003012892B09F451C188E0882E912C310127
:1027A000F301A4ADB5ADED91FC9111970084F185D5
:1027B000E02D26E1E134F20709F03AC159969C91E7
:1027C00059975A962C91892F90E0805C9F4F821BDD
:1027D00091098F739927892B09F443C0F30184A5CC
:1027E00095A5A6A5B7A5228D338DAC01421B530B31
:1027F00053A742A7828F938FA48FB58F138684AD82
:1028000095ADDC01ED91FC910284F385E02D0995F5
:10281000F3019585911102C08F3011F6D3015096C6
:10282000ED91FC91519721E0290F1D962C931D9756
:10283000E90FF11D80831D968C911D978A3108F454
:10284000AFCF5096ED91FC915197808D982F9B7F43
:10285000F9F0982F9F7D9431D9F08432C9F0F301BB
:1028600015860F900F900F900F90DF91CF911F91D1
:102870000F91FF90EF90DF90CF90BF90AF909F901F
:102880008F907F906F905F904F903F902F90089522
:10289000818D8F3021F721E0D3011D962C931D9758
:1028A00096968D919C919797019697969C938E936F
:1028B00096979C964D915D916D917C919F975E96B8
:1028C0004D935D936D937C939197878983FDACC005
:1028D00082FDAAC0D3011A961C92C3010E945E1207
:1028E000882309F45DCFF301C684D7849601205E66
:1028F0003F4F3A83298398E0A92EB12CEE24E3942C
:10290000F12C00E010E020883188DC82CB826F015E
:1029100067C0F101EE0DFF1D208130E0A901002EFE
:1029200002C0559547950A94E2F7618170E002C0B4
:10293000660F771FAA94E2F732E0E30EF11CF10173
:10294000EE0DFF1D808190E020E130E0201B310B77
:10295000DC0102C0AA0FBB1F2A95E2F79D01262BBE
:10296000372B242B352B0D5F1F4F07701127540178
:10297000A01AB10AB8E0AB16B10409F451C0D601EF
:1029800055964D905C905697612C712C3770C9010B
:10299000A0E0B0E09C01AD012419350946095709B2
:1029A000A0E0B8E20E94B032F6012789308D40E005
:1029B00050E024193509460957090E949132DA017D
:1029C000C9018856994DAF4FBF4FEB81FC81819370
:1029D0009193FC83EB8329813A81E217F30759F144
:1029E000063011050CF095CFA7014F5F5F4FF10145
:1029F000E40FF51F208130E002C0220F331FAA949C
:102A0000E2F7F101EE0DFF1D808190E0002E02C083
:102A1000959587950A94E2F7282B392B7A01A3CF55
:102A2000EFEFEE1AFE0AABCF21E0F301228755CF7C
:102A3000CD010995D0CE3601B3CEC1010F900F90D4
:102A40000F900F90DF91CF911F910F91FF90EF901A
:102A5000DF90CF90BF90AF909F908F907F906F90BE
:102A60005F904F903F902F900C940B092091FE03A4
:102A70003091FF034091FC035091FD03241735076B
:102A800044F02F5F3F4F3093FF032093FE0381E01C
:102A900008959091E8009570E1F39091E80092FD1F
:102AA00015C08093F1002091FE033091FF032F5F4A
:102AB0003F4FC9018F739927892B29F78EEF809398
:102AC000E8002091FE033091FF03DBCF80E0089502
:102AD000CF92DF92EF92FF920F931F93CF93DF93EA
:102AE0001F92CDB7DEB7182FE62E042F862F880F42
:102AF0008E5F99830E94361583E00E943615998176
:102B0000EE20F1F0C12ED92EEA94F12C8FEFE81AC5
:102B1000F80AEC0CFD1C0FC080810E943615182F9E
:102B200080E00E943615812361F0FFEFCF1ADF0AA3
:102B3000CE14DF0429F0F60107FFEECF8491EDCF2C
:102B400081E00F90DF91CF911F910F91FF90EF9057
:102B5000DF90CF900895CF92DF92FF920F931F9353
:102B6000CF93DF93F82E6A018B01040F151FEB0141
:102B700006C088810E9436152196882361F0C0170F
:102B8000D10799F0F7FEF5CFFE0184910E9436152A
:102B900021968111F4CF8FEF9FEFDF91CF911F919D
:102BA0000F91FF90DF90CF900895C601DF91CF91F4
:102BB0001F910F91FF90DF90CF900895CF92DF92F9
:102BC000EF92FF920F931F93CF93DF93411551051F
:102BD00009F16A018C017B01C0E0D0E004C02196BC
:102BE000CC16DD0669F0D7016D917D01D801ED911C
:102BF000FC910190F081E02DC8010995892B79F7AE
:102C0000CE01DF91CF911F910F91FF90EF90DF9058
:102C1000CF900895C0E0D0E0F3CFFC01238D348D38
:102C2000231730F4832F90E0821B910901970895B8
:102C30008FE390E0821B9109830F911D0895FC01A1
:102C4000918D828D981761F0828DDF01A80FB11DE3
:102C50005D968C91928D9F5F9F73928F90E0089507
:102C60008FEF9FEF0895FC01918D828D981731F0C1
:102C7000828DE80FF11D858D90E008958FEF9FEF15
:102C80000895FC01918D228D892F90E0805C9F4FEB
:102C9000821B91098F739927089585E094E00E9423
:102CA000411621E0892B09F420E0822F0895FC01D0
:102CB000848DDF01A80FB11DA35ABF4F2C91848DC5
:102CC00090E001968F739927848FA689B7892C93FA
:102CD000A089B1898C9180648C93938D848D981395
:102CE00008950288F389E02D80818F7D8083089587
:102CF000EF92FF920F931F93CF93DF93EC0181E04C
:102D0000888F9B8D8C8D981781F1062FEB8CF12C81
:102D10008FEFE81AF80A8FE3E822FF241E2D03C084
:102D20000FB607FE19C09C8D1917D1F38B8DFE01CC
:102D3000E80FF11DE35AFF4F0083EB8EEA89FB8910
:102D400080818062808381E090E0DF91CF911F914C
:102D50000F91FF90EF900895E889F989808185FFB0
:102D6000E2CFCE010E945716DECFE889F989808133
:102D700085FFCBCFEE89FF896083E889F98980815F
:102D800080648083E0CFCF93DF93EC01888D88232C
:102D9000B9F0EA89FB89A889B989908195FF0DC0AE
:102DA0000FB607FCFACF908195FFF7CF8C9185FF86
:102DB000F4CFCE010E945716ECCF8C9186FFF0CF56
:102DC000DF91CF91089580E090E0892B29F00E9457
:102DD0004D1681110C94000008950E9469350F93DF
:102DE0001F93CF93DF931F92CDB7DEB782E0898325
:102DF00042E450E061E571E080E80E94AB150E947A
:102E0000BD1CDC0112960D911C9113970115110543
:102E100039F413C0F801008511850115110569F019
:102E2000D801ED91FC910280F381E02DBE016F5F2E
:102E30007F4FC801099597FFEDCF89810F90DF91F2
:102E4000CF911F910F9108957F928F929F92AF9291
:102E5000BF92CF92DF92EF92FF920F931F93CF9387
:102E6000DF937C018B016A0180913201811115C0D1
:102E700081E090E0F7019383828380E090E0DF912E
:102E8000CF911F910F91FF90EF90DF90CF90BF9067
:102E9000AF909F908F907F90089580910204882337
:102EA00039F38091AD0180FD5EC0E601812C8AEF8F
:102EB000A82E93E0B92E20E4722E3AE3932E2097A9
:102EC00019F4882009F455C08FB7F894B092E9003E
:102ED0009091E80095FF2EC09091F200272D291BBC
:102EE000922F8FBF222339F130E0C217D3070CF4A1
:102EF0009C2F2FB7F894B092E9008091E80085FFED
:102F000017C0C91BD1093FEF390F992361F0F801B0
:102F1000932F81918093F1009150D8F7832F90E007
:102F20000196080F191F882089F09092E800812CE3
:102F30002FBFC5CF8FBFAA94AA2009F499CF61E013
:102F400070E080E090E00E94B60DB9CF8091E8007B
:102F500085FDEECF9092E80088248394209741F37A
:102F6000812C2FBFACCF8091E00082608093E00085
:102F70009CCF5D9884E6809300041C141D040CF023
:102F800077CFC6017CCF1F920F920FB60F921124FC
:102F90008F939F938091E1009091E100937F9093B4
:102FA000E10083FF0FC01092E90091E09093EB00E5
:102FB0001092EC0092E39093ED001092020498E0DE
:102FC0009093F00082FF1AC093E09093E9009091F3
:102FD000F200992319F09AE39093E800909100048D
:102FE000992341F090910004915090930004911125
:102FF00001C05D9A9091010491111CC084FD24C010
:1030000080FF11C08091E2008E7E80618093E2009B
:103010008091E1008E7E8093E1008091AD018E7EF3
:1030200081608093AD019F918F910F900FBE0F90A3
:103030001F90189590910104915090930104911163
:10304000DDCF289A84FFDCCF8091E2008E7E816004
:103050008093E2008091E1008F7E8093E100809177
:10306000AD018E7E80618093AD019F918F910F9015
:103070000FBE0F901F9018951F920F920FB60F92D0
:103080001124CF92DF92EF92FF920F931F932F9311
:103090003F934F935F936F937F938F939F93AF93E0
:1030A000BF93EF93FF93CF93DF93CDB7DEB76C97CA
:1030B000DEBFCDBF1092E9008091E80083FF6DC0B4
:1030C000FE0175969E01235E3F4F8091F100808343
:1030D0003196E217F307C9F7289884E68093010434
:1030E00082EF8093E8009D8997FD44C08EEF809326
:1030F000E800892F807609F077C08E892F89188D96
:10310000882309F440C0422F50E0512B813009F44C
:1031100002C1833009F40BC1853009F45DC08630EB
:1031200009F415C1873009F48BC0883009F40BC14C
:10313000893081F5937009F083C0E5E7F1E081E023
:1031400031E026E39081992361F08093E900309388
:10315000EB0091919093EC002093ED008F5F87300E
:1031600089F78EE78093EA001092EA008F898093B6
:10317000020410C08091E80080FDBBCF8091E80080
:1031800080FFF8CFB6CF903809F4BEC01092F1009E
:103190001092F1008EEF8093E8006C960FB6F894D1
:1031A000DEBF0FBECDBFDF91CF91FF91EF91BF91F9
:1031B000AF919F918F917F916F915F914F913F91CF
:1031C0002F911F910F91FF90EF90DF90CF900F9074
:1031D0000FBE0F901F9018958091E80080FFFCCFE4
:1031E00020682093E300D6CF8B8D9C8D1092E90050
:1031F0001092FF031092FE039093FD038093FC0353
:10320000898D882309F10E94BD1CDC0112960D9165
:103210001C9113970115110599F0D801ED91FC91BE
:103220000190F081E02DBE016B5E7F4FC8010995D2
:103230008111B0CFF801008511850115110569F7DD
:1032400081E28093EB00A9CF9E898D89813A09F4B0
:1032500050C08132A9F7933209F4A9C0903299F194
:10326000923209F097CF8F89809332018091AC011F
:10327000882309F4ADC0EEEFFAE080912B01909124
:103280002C01A0912D01B0912E01803B9440A1050D
:10329000B10509F4E2C00FB6F894A89580916000DA
:1032A000886180936000109260000FBEA895EE3F89
:1032B0002AE0F20709F4EFC08091FE0A9091FF0A1C
:1032C0009183808367CF8091E80082FFFCCFEBE29F
:1032D000F1E08091F1008083319621E0E233F20742
:1032E000C1F7289884E6809301048BEF8093E8006F
:1032F000BDCF913209F0A4CF47E050E06BE271E01E
:1033000080E00E94AB1546CF8091AE018093F10022
:103310001092F1003FCF91113DCF4130510509F09E
:1033200039CF8091AE018D7F8093AE0133CF911163
:1033300031CF4130510509F02DCF8091AE0182602F
:103340008093AE0127CF81E08093F10023CF12302C
:1033500009F4A6C08B8D9C8D1092E9001092FF039A
:103360001092FE039093FD038093FC030E94BD1C0A
:10337000DC011296ED90FC901397E114F10439F4FE
:103380002AC0F701E084F184E114F10421F1D701AE
:10339000ED91FC910480F581E02DBE016B5E7F4FC5
:1033A000C7010995009769F30CF0F4CE49CF888DD9
:1033B00090E0982F88272F89822BA0E0B0E080939F
:1033C000270190932801A0932901B0932A01E2CE0E
:1033D000E0E0F8E052CF113009F49CC0133009F05E
:1033E0002FCF8F89882309F4A2C0823009F4ACC0A2
:1033F000813009F4A2C0833009F022CF0E94BD1CA5
:10340000DC0112960D911C911397FE0131967F01FC
:103410006F010EC0D801ED91FC910680F781E02D7F
:10342000B601C8010995C80ED11CF80100851185A7
:103430000115110579F7D6011C92F70101900020C2
:10344000E9F73197BF016E197F0940E0C7010E947B
:103450006815882309F4F4CE9DCE8091320180FD59
:103460001ACFEE3F8AE0F80709F464C080819181A9
:103470009093FF0A8093FE0A87E797E79183808302
:103480009BE088E10FB6F894A895809360000FBE8A
:10349000909360007FCE1092FF0A1092FE0A7ACEBF
:1034A000EB8CFC8C1092E9001092FF031092FE034B
:1034B0001092FD031092FC030E94EF1699E0BE01EA
:1034C0006F5F7F4FDB01E92F1D92EA95E9F7998342
:1034D0001A8391E09E8390EA98879AEF99872091CA
:1034E000FE033091FF03275F3F4F3C832B838D8387
:1034F0001092E9001092FF031092FE03F092FD0378
:10350000E092FC0349E050E080E00E94AB150E948D
:10351000EF1640CE67E971E06115710509F490CEB0
:10352000FB01449150E080E80E94AB1533CE63E983
:1035300071E0F2CFEEEFFAE09FCF40E86BE089EA6E
:1035400091E00E94681585CF40E860E185EB91E04D
:103550000E9468157ECF1F920F920FB60F92112412
:103560002F933F934F935F936F937F938F939F938B
:10357000AF93BF93EF93FF9385E094E00E945716BB
:10358000FF91EF91BF91AF919F918F917F916F913B
:103590005F914F913F912F910F900FBE0F901F9011
:1035A00018951F920F920FB60F9211242F938F939D
:1035B0009F93EF93FF93E0911504F091160480819F
:1035C000E0911B04F0911C0482FD1BC020818091BE
:1035D0001E048F5F8F7390911F04891741F0E09153
:1035E0001E04F0E0EB5FFB4F258F80931E04FF91DC
:1035F000EF919F918F912F910F900FBE0F901F9081
:1036000018958081F4CFCF92DF92FF920F931F9392
:10361000CF93DF931F92CDB7DEB76C01F62E60ED2E
:1036200049830E94DD100BEB10E0F801F08264E8A2
:10363000C6010E94C7104981F801408364E8C601B1
:103640000E94C71084E98093BC000F90DF91CF9156
:103650001F910F91FF90DF90CF900895AF92BF928E
:10366000CF92DF92EF92FF920F931F93CF93DF934E
:103670008C01C62F5A0160ED0E94DD10C093BB0083
:1036800064E8C8010E94C71061EDC8010E94DD1006
:10369000F801E080F1806501F5E0CF0ED11CE50175
:1036A000219664ECC8010E94C7108091BB00FE0106
:1036B00031978083F80180819181E816F90601F540
:1036C000CC15DD0569F764E8C8010E94C710809138
:1036D000BB0094E99093BC00F501858381E0F8017B
:1036E00020813181E216F30669F0DF91CF911F91BD
:1036F0000F91FF90EF90DF90CF90BF90AF90089523
:1037000081E0F3CF80E0F1CFAF92BF92CF92DF9212
:10371000EF92FF920F931F93CF93DF9300D000D0CF
:10372000CDB7DEB79C838B835B017A016901CA0147
:10373000800F911F9A83898362E08AEC96E00E9451
:10374000DE0BE091CA06F091CB060280F381E02DFA
:1037500042E050E0BE016F5F7F4F8AEC96E0099532
:10376000E091CA06F091CB060280F381E02D42E0A1
:1037700050E0BE016D5F7F4F8AEC96E009951E1404
:103780001F0434F4A701B5018AEC96E00E942417C7
:103790001016110634F4A801B6018AEC96E00E94D6
:1037A000241763E08AEC96E00E94DE0B0F900F90E6
:1037B0000F900F90DF91CF911F910F91FF90EF909D
:1037C000DF90CF90BF90AF9008950F931F9300E0CC
:1037D00010E020E030E00E94841B1F910F910895BB
:1037E0000F931F9320917D0630917E0682179307D9
:1037F00081F000E010E020E030E040E050E060E0E8
:1038000070E088E29BEE0E94841B80E01F910F9184
:10381000089581E01F910F9108958F929F92AF922A
:10382000BF92EF92FF920F931F93CF93DF938C0180
:103830007B018AEC96E00E94130C892B61F0809149
:103840000304909104049701281B390BC901181631
:1038500019060CF066C08AEC96E00E94130C0097E3
:1038600059F4DF91CF911F910F91FF90EF90BF908E
:10387000AF909F908F90089520910304309104049D
:10388000E21AF30A020F131FC0E0D0E0E114F104C2
:1038900009F43FC00E94FC0D6093D2067093D306DA
:1038A0008093D4069093D5061DC00E94FC0D809095
:1038B000D2069090D306A090D406B090D506DC0135
:1038C000CB0188199909AA09BB098090CE0690906E
:1038D000CF06A090D006B090D10688159905AA050C
:1038E000BB0598F4E091CA06F091CB060284F385FB
:1038F000E02D8AEC96E0099597FDD7CFF8018193EA
:103900008F012196EC16FD0629F6209103043091D3
:103910000404C9018C0F9D1F909304048093030439
:10392000A0CF8FEF9FEF9DCFFC01809102048823F1
:1039300009F14FB7F89482E08093E9002091F200FA
:1039400030E01216130614F421E030E021153105A1
:1039500071F0289894E6909301049091F10090837F
:103960008091F200811103C08BE68093E8004FBF85
:10397000C90108958FEF9FEF08958091C2068111CC
:103980000DC082E08093BE0684E08093BF06109253
:10399000C1061092C00681E08093C2068EEB96E0CD
:1039A0000895CF93DF93CDB7DEB7EF970FB6F894B6
:1039B000DEBF0FBECDBF789484B5826084BD84B570
:1039C000816084BD85B5826085BD85B5816085BD1A
:1039D00080916E00816080936E00109281008091D2
:1039E000810082608093810080918100816080935A
:1039F000810080918000816080938000809191009F
:103A00008260809391008091910081608093910009
:103A1000809190008160809390008091C1008460CB
:103A20008093C1008091C10082608093C100809129
:103A3000C10081608093C1008091C3008160809348
:103A4000C3008091C00082608093C0008091C2005A
:103A500081608093C20080917A00846080937A00B4
:103A600080917A00826080937A0080917A008160F0
:103A700080937A0080917A00806880937A00109217
:103A800002041092AE011092AD018091D7008160C6
:103A90008093D70080EA8093D80089B5806189BD82
:103AA00089B5826089BD09B400FEFDCF61E070E098
:103AB00080E090E00E94B60D8091D8008F7C8061FC
:103AC0008093D8008091E000807F8093E000809117
:103AD000E1008E7E8093E1008DE08093E200559AB4
:103AE000209AEEEFFFE7859194918B3F9C4D11F466
:103AF0000C94AC2D8091D80080618093D8001092F6
:103B0000ED0446E451E0FA01649127E231E0F90165
:103B100084918823C9F090E0880F991FFC01EB5F26
:103B2000FE4FA591B49189509F4FFC0105911491CE
:103B30009FB7F8947C91862F809587238C93D8012A
:103B40008C91862B8C939FBFECEEF0E08491FA0170
:103B50000491F9011491112371F081110C94B12D8C
:103B6000E12FF0E0EE0FFF1FE653FF4FA591B49158
:103B70004C914023B1F420E639E040E252E060E0AD
:103B800070E088E696E00E94620F6CED75E088E6D2
:103B900096E00E942C0F68EC70E080E090E00E94BC
:103BA000B60D809A819A899A889A4EEB50E060E02F
:103BB00070E08AEB92E00E9469324BE051E06CE2E7
:103BC00071E08FEA91E00E94693285E094E0909381
:103BD0008E0580938D058DE895E00E94AD0A87E8FB
:103BE00096E00E94EE108091AF019091B001019695
:103BF0009093B0018093AF018091B1018F5F8431C8
:103C000010F40C94D1291092B10180E090E04DE0C5
:103C1000489F9001499F300D1124C9018C549E4F3B
:103C20009093B9028093B802E8E5F5E080E1DF0106
:103C30001D928A95E9F789986091B30187E10E9406
:103C40005C0D87E0E9E3F1E0DE01919601900D92D1
:103C50008A95E1F78DA18093A2048EA18093A3049D
:103C60008FA18093A404EEE4F5E0FFAFEEAF9E01D8
:103C7000235F3F4F39A728A78091ED04882371F077
:103C80001092ED0441E552E0509305014093040188
:103C900080916900806380936900EA9A81E0809353
:103CA00063058091B5039091B6038230910509F4C4
:103CB00062C2ECF5009709F483C0019709F05CC07B
:103CC00062E070E08DE796E00E940D1C029769F4B7
:103CD00010920404109203048091B5039091B603EE
:103CE00001969093B6038093B503209148033091D9
:103CF000490340914A0350914B0360914C037091EA
:103D00004D0380914E0390914F032E3A34474E4C11
:103D10005F48644678448C48910509F470C00E945D
:103D2000E3168091ED04882309F4B8CFA9CF83303E
:103D3000910539F1049701F561E070E0CE0101963B
:103D40000E940D1C892B89F21092B6031092B503C4
:103D50008981833009F452C700E010E020E030E0B0
:103D600040E050E060E070E088E29BEE0E94841B3F
:103D70008AE080936405B9CF1092B6031092B50320
:103D8000B4CF60917D0670917E0680917F06909100
:103D900080060E940D1C20917D0630917E068217C0
:103DA000930751F68091B5039091B60301969093D5
:103DB000B6038093B5031092040410920304BCCFA1
:103DC000109204041092030461E070E0CE010196A9
:103DD0000E940D1C892B09F488CF8981823009F05B
:103DE00084CF8091B5039091B60301969093B6036A
:103DF0008093B503109204041092030476CF82E0FE
:103E0000809363050E94FC0D60935A0570935B05D7
:103E100080935C0590935D0584E08093630585E85D
:103E200096E00E94500788E08093630500918F051B
:103E30001091900501151105D1F0D801ED91FC917B
:103E40000190F081E02DC801099500918F05109136
:103E50009005F8018485811100C7D8011A968C91CC
:103E60001A978093EB041B968C918093EC04D801F5
:103E70001C96DC90D11077C68091AD03882309F49D
:103E80003EC60E94900D6093A9037093AA0380938D
:103E9000AB039093AC030091A1031091A203209176
:103EA000A3033091A403601771078207930708F4F6
:103EB000A1C00E944A316B017C0120E034E244E75A
:103EC00059E46091A5037091A6038091A703909196
:103ED000A8030E94AB319B01AC01C701B6010E944F
:103EE000F5320E94DA336093A1037093A2038093AA
:103EF000A3039093A40380E180936305A0905605EB
:103F0000B090570532E0A316B1040CF448C24090BB
:103F1000320550903305609034057090350544E0CB
:103F2000A416B10411F40C940B2C20E030E044EB07
:103F300052E4C301B2010E94093487FF02C00C940D
:103F4000B92A20E030E047E853E4C301B2010E94FF
:103F50004531181614F40C94B92A60E070E084E33B
:103F600093E4C0904506D0904606F6012481358141
:103F7000468157810E94F432209195053091960533
:103F800040919705509198050E94F432A301920147
:103F90000E94F5327B018C013B014C0120E030E0B6
:103FA00044E353E4B301C4010E94093418165CF4DD
:103FB00020E030E044EB53E4B301C4010E94F4324A
:103FC0003B014C01EBCF20E030E044E353ECB30184
:103FD000C4010E94453187FD02C00C94D62920E01F
:103FE00030E044EB53E4B301C4010E94F5323B01DD
:103FF0004C01D4CF80919903882309F4DAC00E9440
:10400000900D60939503709396038093970390931C
:10401000980300918D0310918E0320918F033091AE
:104020009003601771078207930708F49AC00E94F3
:104030004A316B017C0120E034E244E759E46091AD
:1040400091037091920380919303909194030E9445
:10405000AB319B01AC01C701B6010E94F5320E9451
:10406000DA3360938D0370938E0380938F03909364
:10407000900380E48093630580918C0391E0980F16
:1040800090938C038A3008F07FC48091890311E0FB
:10409000180F10938903863008F023C480917B00A9
:1040A00081110C94D32D80910E0181110C94B52DAA
:1040B0008EE580937C0080917A00806480937A0002
:1040C00080917A0086FDFCCF209178008091790064
:1040D00030E0382B032E000C440B550B64EB7BE2D5
:1040E00081E190E00E949132CA01B9010E944C31F5
:1040F00020E030E04AE754E40E9461336B017C0128
:1041000020E030E040E850E40E9409341816DCF466
:1041100026E636E646E650E4C701B6010E94453180
:1041200087FD02C00C94892E81E08093880320E0F3
:1041300030E040E251E4C701B6010E94AB310E9479
:10414000DA3360935805109189038091B30181118E
:1041500012C490E08091B201890F181708F012C4C0
:10416000889A80918A0390918B03019690938B0398
:1041700080938A03D4CD62E070E081E896E00E94EB
:104180000D1C029709F0B1CD80917D0690917E06BD
:10419000892B09F0C7C78091B5039091B6030296A9
:1041A0009093B6038093B503109204041092030415
:1041B0009CCD2DEC3CEC4CEC5DE3209391033093D3
:1041C000920340939303509394030E94900D0E9496
:1041D0004A316B017C0120E034E244E759E460910C
:1041E00091037091920380919303909194030E94A4
:1041F000AB319B01AC01C701B6010E94F5320E94B0
:10420000DA3360938D0370938E0380938F039093C2
:10421000900381E080939903F2CEF7FAF094F7F8D7
:10422000F094C982DA82EB82FC82C0902E05D09095
:104230002F05E0903005F090310520E030E041E6B8
:1042400053E4C701B6010E94093487FF02C00C94F1
:104250004F2F20E030E84DE953E4C701B6010E943A
:104260004531181614F40C944F2F0091BE0210E043
:104270002091990530919A0540919B0550919C059C
:1042800069857A858B859C850E94F5322AE43CE01D
:1042900046E351E40E94AB312091A1053091A20583
:1042A0004091A3055091A4050E94AB3120E030E875
:1042B0004BEB54E40E94F5320E94D3336B017C0136
:1042C000072E000C880B990B0E944C314B015C01AE
:1042D00020E030E047E754E40E94453187FD02C00A
:1042E0000C94412F8CED93E0F801EE0FFF1FE2518B
:1042F000FB4F91838083E980FA800B811C81E091E0
:10430000BC02CE2ED12C2091910530919205409186
:10431000930550919405B701C8010E94F5322AE433
:104320003CE046E351E40E94AB3120919D05309181
:104330009E0540919F055091A0050E94AB3120E061
:1043400030E84BEB54E40E94F5320E94D3334B012A
:104350005C01072E000C880B990B0E944C312B013D
:104360003C0120E030E047E754E40E94453187FFFC
:1043700002C00C94E32F20E030E84BEF54E4C3017B
:10438000B2010E940934181614F40C94B02CB40134
:10439000F601EE0FFF1FE251FB4F7183608380E255
:1043A000809363058091EC04882301F1A7E4B6E0D3
:1043B0002EE035E008C013962E5F3F4FF6E0AB3697
:1043C000BF0709F417CE8C9190E0FC01EE0FFF1FA0
:1043D0008E0F9F1FFC01E859FA4F808186FFEBCFBB
:1043E0008F7B8083F90111821082E5CF2BEB32E0C5
:1043F000ACE7B3E0F90181919F0190E0893091052C
:104400000CF05EC2880F991FFC01E251FB4F8081C6
:1044100091818D939D93F3E0A438BF0759F72091C4
:10442000C1022F3F11F40C94A42D822F90E029306B
:1044300010F00C94992D880F991FFC01E251FB4F4D
:104440008081918122E1ABE6B6E01D922A95E9F7E1
:1044500000917E0310917F03980124583340213B43
:10446000344008F050C07C017CEDE71A75E0F70A93
:104470006801CE0CDF1CB6010D2C000C880B990BCB
:104480000E944C314B015C0120E030E047E754E4EE
:104490000E94453187FD1FC220E030E84BEF54E415
:1044A000C501B4010E940934181614F40C94852D2A
:1044B0009C2D8D2D90936B0680936C06F801EE1960
:1044C000FF097F01BF01FF0F880B990B0E944C3140
:1044D0004B015C0120E030E047E754E40E944531A5
:1044E00087FD5CC720E030E84BEF54E4C501B40120
:1044F0000E94093418160CF44EC79E2D8F2D9093F0
:1045000073068093740680917C0390917D03909351
:10451000700680936F064091800350918103CA0119
:1045200084589340813B944008F42FC12CEC32E036
:104530003DAB2CAB07E4602E06E0702E40E451E06A
:104540005BAF4AAF6EE075E07FA76EA788ED92E0A3
:104550009BA78AA7AEEDB2E0B9ABA8ABDFC0EE0F68
:10456000FF0BE559F94F2081318139AF28AF88AD74
:1045700099AD84589340813B944008F0ECC0EAA583
:10458000FBA56481758180E090E00E944A316CAFA8
:104590007DAF6C01AAA5BBA512966D917C91139776
:1045A00080E090E00E944A31162F072FF82EE92E66
:1045B000E8A9F9A980818F3F09F470C1A8ADB9AD10
:1045C000BD0180E090E00E944A314B015C0120E097
:1045D00030E84BEB54E4C501B4010E944531181694
:1045E0000CF03BC1AAA5BBA56D917C9180E090E049
:1045F0000E944A311B012C0120E030E84BEB54E4CF
:10460000C501B4010E94F43220E030E040E05BE3F9
:104610000E94AB314B015C01A20191016CAD7DADFB
:10462000C6010E94F4329B01AC01C501B4010E9495
:10463000AB319B01AC01C201B1010E94F5320E9475
:10464000DA3380E090E00E944A314B015C019B012B
:10465000AC01612F702F8F2D9E2D0E9409341816EA
:104660006CF09401A5016CAD7DADC6010E94453191
:1046700087FF21C11CAD0DADFC2CED2C612F702FDF
:104680008F2D9E2D0E94DA336B017C01EEA5FFA5D4
:1046900071836083CB0184589340813B944008F040
:1046A0005EC0D3018C9190E0FC01EE0FFF1F8E0FD6
:1046B0009F1FFC01E859FA4F808186FD0BC0EAADCF
:1046C000FBAD608170E024E338E044E853E0C301CF
:1046D0000E94620FB601C3010E942C0FB3E06B0E63
:1046E000711CEAADFBAD3196FBAFEAAF2EA53FA53D
:1046F0002E5F3F4F3FA72EA74AA55BA5495F5F4F9F
:104700005BA74AA768A979A9695F7F4F79AB68ABB6
:104710008CA99DA9885D924009F46CCCACA9BDA977
:10472000ED91BDABACABEF3F59F1E9300CF417CFD5
:10473000E9310CF01CCFEE0FFF0BE057FB4F45812A
:10474000568159AF48AF88AD99AD84589340813BAD
:10475000944008F414CFAEA5BFA51D921C92D301BE
:104760008C9190E0FC01EE0FFF1F8E0F9F1FFC014C
:10477000E859FA4F808186FFB1CF8F7B8083AECF1F
:10478000EEA5FFA511821082EACF8091820390915D
:1047900083039C0124583340213B344008F0C6CEAB
:1047A00050936E0640936D06909372068093710647
:1047B0009A012C5D3540BC01621B730B7093760629
:1047C00060937506820F931F909378068093770607
:1047D0000C5D1540CA01800F911F90937A0680935B
:1047E0007906401B510B50937C0640937B061DE6D7
:1047F000E12E16E0F12E12E0D12E17C020E030E8B5
:104800004BEF54E4C501B4010E940934181614F4A6
:104810000CED17E0F70111830083F9E0DF1609F4CE
:1048200085CED394B2E0EB0EF11CE3E0DE16C9F3C3
:10483000D7010D911C91B80180E090E00E944A31AF
:104840004B015C0120E030E047E754E40E94453131
:1048500087FFD4CF0CED13E0DDCFEAA5FBA5608187
:10486000718180E090E00E944A311B012C0120E020
:1048700030E84BEB54E4C501B4010E94F43220E06F
:1048800030E040E05BE30E94AB314B015C01212F43
:10489000302F4F2D5E2DC201B101C3CE68EB7BE0FE
:1048A00088AD99AD681B790B80E090E00E944A3199
:1048B0004B015C018CCE182D092DFA2CEB2CDECE91
:1048C000893191055CF4880F991FFC01EE55FB4F6F
:1048D000858196819ECD9CED83E0ECCD80E090E0DB
:1048E00098CD80917B00803229F080917B0080629E
:1048F00080937B0087EC80937C0080917A008064B9
:1049000080937A0080917A0086FDFCCF80917A00B6
:10491000806480937A0080917A0086FDFCCF60915C
:1049200078008091790070E0782B072E000C880BBE
:10493000990B0E944C3120E030E848E853E40E9493
:10494000F43220E030E040EA50E40E94F5320E9468
:10495000D3331616170614F4609359051091890382
:104960001C3008F4F2CB1092890310E08091B3015F
:10497000882309F4EECB94E18091B201890F1817D6
:1049800008F4EECB8898EDCB84B7833461F0F894CB
:10499000A89584B7877F84BF88E18093600083E413
:1049A0008093600078949091580580910D0198173C
:1049B00060F4E091B802F091B90284858260848746
:1049C0008091580580930D0180878091590581352C
:1049D00080F090910C01891761F0E091B802F0919C
:1049E000B9028485846084878091590580930C0185
:1049F000818760914B0570914C0520918603309121
:104A00008703A901440F551FC901880F991F880FFB
:104A1000991F880F991F840F951F8617970788F491
:104A2000E091B802F091B902448548604487232B95
:104A300011F48AE090E09093870380938603778354
:104A4000668380918503811148C08091EB0488239F
:104A500009F447C080918403882361F091E090932A
:104A60006605E091B802F091B9028485816084877F
:104A7000909385038091660581113EC06091640525
:104A800086E10E945C0D20918A0330918B0340E007
:104A900050E060E472E48FE090E00E949132309345
:104AA000A6042093A504E0918F05F091900530971E
:104AB00009F46AC4848195819093E8048093E704A3
:104AC000828193819093EA048093E90410928B038E
:104AD00010928A0310928C03D8CA8091EB04811142
:104AE000C9CF809184038111C5CF81E08093840375
:104AF00080916605882311F20E942B11BFCF8AE0B6
:104B000097EDA3E2BCE38093A5039093A603A09343
:104B1000A703B093A8030E94900D0E944A316B0135
:104B20007C0120E034E244E759E46091A5037091F0
:104B3000A6038091A7039091A8030E94AB319B012B
:104B4000AC01C701B6010E94F5320E94DA336093CE
:104B5000A1037093A2038093A3039093A40381E025
:104B60008093AD038EC9E0905405F0905505809177
:104B70000A0190910B01E816F90609F44EC197015C
:104B8000B5E6EB16F10408F476C736952795369509
:104B90002795ABE7B4E10E94E5329695879544E608
:104BA000489F9001499F300D112450914D059091DF
:104BB000560580915705EAE3F3E041E000E010E09C
:104BC000619171916217730781F00115110509F464
:104BD000ADC7473009F4D1C05D2D0F5F1F4F4F5F48
:104BE000619171916217730781F750934D050F5FC3
:104BF0001F4F1093570500935605C8C0809181063A
:104C0000909182068439B5E79B0709F4FBC208F44A
:104C1000DAC288303DE9930709F46DC208F0C2C6D4
:104C2000883B58E8950709F4C2C208F4A0C68C3145
:104C3000A9E89A0709F497C2843A9C4909F089C205
:104C400001E010E02BEE34E048E150E06EE075E06A
:104C500084EA9CE90E94841B8BC82090C502309096
:104C6000C6028091C7029091C8022091C90230917A
:104C7000CA02E7ECF4E0FBA7EAA747EA54E05FA723
:104C80004EA76101E12CF12CA90160E070E048AB76
:104C900059AB6AAB7BAB9C0140E050E02CAB3DAB29
:104CA0004EAB5FAB39C00E944A314B015C01B3018E
:104CB00080E090E00E944A31A50194010E94F43204
:104CC0002B013C0168A979A98AA99BA90E944A31B4
:104CD000A50194010E94F4329B01AC01C301B20111
:104CE0000E94613320E030E040E054E40E94AB31A8
:104CF00020E030E84BEB54E40E94F5320E94DA33B6
:104D0000EEA5FFA561937193FFA7EEA72AA53BA58A
:104D1000275E344009F4A1C8AAA5BBA52D913D91F9
:104D2000BBA7AAA7ADECBCEC0E94E5323C0176948F
:104D300067947694679476946794C701B6012614B5
:104D4000370408F4B0CF0E944A314B015C01B30133
:104D500080E090E00E944A31A50194010E94F43263
:104D60002B013C016CA97DA98EA99FA90E944A3103
:104D70009B01AC01C501B401ADCF90935605809362
:104D8000570521E020934D05092F182F06301105F6
:104D900049F580902E0590902F05A0903005B09099
:104DA000310520E030E044E353E4C501B4010E9442
:104DB000093487FDAEC620E030E044EB53E4C50182
:104DC000B4010E94453118160CF4A3C640E050E02F
:104DD00067E873E44093F1055093F2056093F3059F
:104DE0007093F40501501109C801880F991F800FB5
:104DF000911F880F991F880F991F8B549A4F90937A
:104E00004606809345068CE0A9EAB5E01D928A9596
:104E1000E9F7F0920B01E0920A018CEBC82E82E0D8
:104E2000D82E9DE8E92E95E0F92E11E0F60181914A
:104E30006F0190E0803191050CF0FFC0880F991F41
:104E4000FC01EE55FB4F65807680C301845893408A
:104E5000813B944008F430C6F70114821582168213
:104E600017821195F4E0EF0EF11C29E9E21625E016
:104E7000F206E1F640E050E060E67FE34093A105F2
:104E80005093A2056093A3057093A40540939D05DC
:104E900050939E0560939F057093A0058091BF027B
:104EA0008F3F09F403C6E82FF0E0803108F00FC10E
:104EB000EE0FFF1FEE55FB4FC580D6805CEDC51A87
:104EC00053E0D50A0D2C000CEE08FF08C701B6010F
:104ED0000E944C3120E030E048E454E40E94613309
:104EE00020E030E040E85EE30E94F53260939D05EB
:104EF00070939E0580939F059093A005E091C0025A
:104F0000EF3F09F431C5E03108F0DCC0F0E0EE0F0E
:104F1000FF1FEE55FB4F658176816C5D7340072E58
:104F2000000C880B990B0E944C3120E030E048E4E3
:104F300054E40E94613320E030E040E85EE30E94E8
:104F4000F5326093A1057093A2058093A305909319
:104F5000A40580E2E7EAF4E0AEEEB4E001900D9241
:104F60008A95E1F788E0AEADBFAD1D928A95E9F76D
:104F7000E0905405F0905505F2ECAF2EF2E0BF2E14
:104F8000EEE4F5E0FFAFEEAF6F0101E010E0D50118
:104F90008D915D018A3009F48DC090E080319105DA
:104FA0000CF041C0880F991FFC01EE55FB4F658145
:104FB00076816C5D734080E090E00E944A312DEC78
:104FC0003CEC4CEC52E40E94613320E030E040E0E5
:104FD0005FE30E94F5320E94D333693071050CF40F
:104FE0003BC5C801880F991F880F991F880F991F0B
:104FF0009C01200F311FF60131832083E20EF31E46
:10500000000F111F080F191FF2E0CF0ED11C25EC65
:10501000A21622E0B20609F0BACFF0925505E0924E
:1050200054050C943C1F20E030E0C801880F991F04
:10503000880F991F880F991FDECF2BE41202B00151
:105040001124072E000C880B990B0E944C316AA783
:105050007BA78CA79DA735EB1302B0011124072E67
:10506000000C880B990B0E944C314B015C01412CC8
:10507000512C3201A50194016AA57BA58CA59DA5A3
:105080000E94F432A30192010E94AB3120E030E093
:1050900040E85AE30E94AB319B01AC01C501B40169
:1050A0000E94F532D70114966D937D938D939C9356
:1050B0001797D7CEC801880F991F880F991F880F9F
:1050C000991F9ECF60E070E080E89EE33ACF20E039
:1050D00030E040E85EE320939D0530939E054093C9
:1050E0009F055093A005E091C002EF3F09F00BCF60
:1050F000CA01B90126CF80E690E00E94F01B882308
:1051000011F40C94B81EE0917F06F091800680E6C1
:10511000ACECB2E001900D928A95E1F70E94F41197
:105120000C94B81E8091B5039091B60301969093AC
:10513000B6038093B503E0917F06F09180068EEB75
:10514000DF011D928A95E9F72FC8019611F40C949E
:10515000AC1E42E050E061E876E084EC9AEE0E94FA
:10516000E51B0C94B81E8BE091E0AFEAB1E0FC01C6
:105170001D923197E9F70E941E118091B1018F5F56
:105180008093B1018431E8F01092B10180E090E0A9
:105190004DE0489F9001499F300D1124C9018C5466
:1051A0009E4F9093B9028093B8020C94B81E4BE0C6
:1051B00051E06FEA71E088EB98E80E94E51B0C94DF
:1051C000B81E90E0E5CF883DF7E29F0709F467C07D
:1051D00008F49DC08C347FE4970709F477C0E8F1A8
:1051E000803BFFE49F0711F18033954709F0B1CF71
:1051F0004EEB50E06AEB72E080E395E70E94E51B1E
:105200000C94B81E8EEB90E00E94F01B882381F373
:10521000E0917F06F09180068EEBAAEBB2E0019060
:105220000D928A95E1F70E94F411E2CF87E090E0B9
:105230000E94F01B882311F40C94B81EE0917F06A5
:10524000F091800687E0A5ECB2E001900D928A957E
:10525000E1F70E94F4110C94B81E8438BEE49B0759
:1052600009F44BC0883E9E4409F073CF81E090E082
:105270000E94F01B882311F40C94B81EE0917F0665
:10528000F091800680818093BA020E94F41180918F
:105290008306909184060E94AD0A0C94B81E80E2A9
:1052A00090E00E94F01B882311F40C94B81EE0914A
:1052B0007F06F091800680E4A8E5B3E001900D92AE
:1052C0008A95E1F70E94F4110C94B81E87E090E0F3
:1052D0000E94F01B882311F40C94B81EE0917F0605
:1052E000F091800680E7A5ECB2E001900D928A95DE
:1052F000E1F70E94F4110C94B81E47E450E067EA0D
:1053000074E084E89EE40E94E51B0C94B81E8C3483
:1053100034E0930799F050F1803157E29507C1F0DE
:105320008437974209F015CF40E450E068E573E018
:1053300084E797E20E94E51B0C94B81E4AE050E017
:105340006EE475E08CE494E00E94E51B0C94B81EBA
:1053500008E010E028E433E043E050E062EA74E063
:1053600080E197E20E94841B0C94B81E892B11F4F3
:105370000C94751E42E050E061E876E084EC9AEE11
:105380000E94E51B0C94B81E1092E8041092E704EA
:1053900080E090E097CB9CED87E0B1C89CED83E086
:1053A000AEC88093B10190E00C94071EC301D401F4
:1053B0008D839E83AF83B887F6E0AF16B10409F4FE
:1053C00047C020E030E044E353E4F601608171819E
:1053D000828193810E94F53220919105309192054E
:1053E00040919305509194050E94F53220912E052D
:1053F00030912F05409130055091310506C020E0D5
:1054000030E044EB53E4B601C4010E94F4326B0176
:105410004C0120E030E044E353E4B601C4010E94B3
:105420000934181664F320E030E044E353ECB6018D
:10543000C4010E94453187FFA2C020E030E044EB68
:1054400053E4B601C4010E94F5326B014C01E1CF77
:1054500020E030E047E853E4D6016D917D918D91D5
:105460009C910E94453120E030E042E053E48111FC
:1054700040C06091F5057091F6058091F705909117
:10548000F8050E94F53220913E0530913F0540918C
:105490004005509141050E94F5326B017C0120E0EE
:1054A00030E044E353E4C701B6010E940934181602
:1054B0005CF420E030E044EB53E4C701B6010E9405
:1054C000F4326B017C01EBCF20E030E044E353EC9D
:1054D000C701B6010E94453187FF81C020E030E05E
:1054E00044EB53E4C701B6010E94F5326B017C0125
:1054F000D6CF6091F5057091F6058091F7059091F2
:10550000F8050E94F53220913E0530913F0540910B
:105510004005509141050E94F5326B017C0120E06D
:1055200030E044E353E4C701B6010E940934181681
:105530005CF420E030E044EB53E4C701B6010E9484
:10554000F4326B017C01EBCF20E030E044E353EC1C
:10555000C701B6010E94453187FFE9C320E030E072
:1055600044EB53E4C701B6010E94F5326B017C01A4
:10557000D6CF60E070E080E791E40C94B11FC601E3
:10558000D40189839A83AB83BC8320E030E044E379
:1055900053E4B701C8010E94093418165CF420E0F6
:1055A00030E044EB53E4B701C8010E94F4327B01C0
:1055B0008C01EBCF20E030E044E353ECB701C801AD
:1055C0000E94453187FF55C020E030E044EB53E4B2
:1055D000B701C8010E94F5327B018C01D6CFC98684
:1055E000DA86EB86FC8620E030E047E853E4609101
:1055F000F1057091F2058091F3059091F4050E94F8
:10560000F532209142053091430540914405509177
:1056100045050E94F5326B017C0120E030E044E357
:1056200053E4C701B6010E94093418165CF420E067
:1056300030E044EB53E4C701B6010E94F4326B0141
:105640007C01EBCF20E030E044E353ECC701B6012E
:105650000E94453187FD02C00C94112120E030E00A
:1056600044EB53E4C701B6010E94F5326B017C01A3
:10567000D4CFC701D8018D839E83AF83B8879E01A5
:105680002F5F3F4F79014CEB52E059AB48AB0DE82F
:1056900015E08AA69EA6212C312C2FC020E030E8F0
:1056A0004BEF54E4C301B2010E94093418160CF404
:1056B0000AC1C401F601EE0FFF1FE251FB4F9183B7
:1056C0008083B4E0EB0EF11C0C5F1F4F2A9423285B
:1056D00011F40C94CF21A0905605B0905705D70136
:1056E000CC901196DC9011971296BC91BAA7F70155
:1056F000F381FEA722242394312C57E0A516B10490
:10570000A9F12AE43CE046E351E4B6018AA59EA54E
:105710000E94AB31E8A9F9A9C190F9ABE8ABD12C53
:10572000D80150962D913D914D915C9153970E94D7
:10573000AB3120E030E84BEB54E40E94F5320E949C
:10574000D3334B015C01072E000C880B990B0E9490
:105750004C312B013C0120E030E047E754E40E944B
:10576000453187FF9BCF8CED93E0A4CF0E94FC0DC9
:105770002B013C018091780390917903A0917A03E9
:10578000B0917B03A3019201281B390B4A0B5B0BE1
:10579000CA01B9010E944A3120E030E040EC50E4F7
:1057A0000E94093487FF27C3D8015C968C905C97D0
:1057B0005D969C905D975E96AC905E975F96BC9070
:1057C0009401A501B6018AA59EA50E94F5324B0160
:1057D0005C0120E030E046E952EC0E94453187FD53
:1057E000FFC220E030E046E952E4C501B4010E9466
:1057F000093418160CF4E9C22AE43CE046E351E40B
:10580000C501B4010E94AB31D7018D929D92AD923A
:10581000BC9213977FCF20E030E04CE553E4C30106
:10582000B2010E94093487FF02C00C94951F20E04A
:1058300030E040EA53E4C301B2010E94453118163A
:1058400014F40C94951F2091950530919605409184
:1058500097055091980560E070E084E393E40E941E
:10586000F432209142053091430540914405509116
:10587000450506C020E030E044EB53E4B701C80121
:105880000E94F4327B018C0120E030E044E353E4D9
:10589000B701C8010E940934181664F320E030E013
:1058A00044E353ECB701C8010E94453187FF0EC0A5
:1058B00020E030E044EB53E4B701C8010E94F53228
:1058C0007B018C01E1CF8CED97E0F4CEC701D801CC
:1058D0008D839E83AF83B8872091990530919A0577
:1058E00040919B0550919C0560E070E084E393E457
:1058F0000E94F43220913A0530913B0540913C05DD
:1059000050913D050E94F4324B015C0120E030E0F3
:1059100044E353E4C501B4010E94093418165CF451
:1059200020E030E044EB53E4C501B4010E94F432BE
:105930004B015C01EBCF20E030E044E353ECC501C8
:10594000B4010E94453187FF42C320E030E044EBC0
:1059500053E4C501B4010E94F5324B015C01D6CF7E
:105960006CED77E00C94C821C701B601DCCA883F12
:10597000954709F0EECB8AE090E00E94F01B882367
:1059800011F40C94B81EE0917F06F09180068AE035
:10599000ABEBB2E001900D928A95E1F70E94F41111
:1059A0000C94B81E8036EAEE9E0779F008F04EC0DF
:1059B000803523EC9207F1F1843B934C09F0C9CB7D
:1059C00081E080934A050C94B81E8091A5049091C3
:1059D000A6049A8389838CE0EEE2F5E0DE0113965B
:1059E00001900D928A95E1F7809158058F878091FB
:1059F0005905888B80914B0590914C059A8B898B2A
:105A00008091B2018B8B8091B3018C8B8CE0EAE3A7
:105A1000F5E0DE01559601900D928A95E1F740E29E
:105A200050E0BE016F5F7F4F80E69AEE0E94E51B5B
:105A30000C94B81E80E092E0909347058093460551
:105A400090934905809348050C94B81E88344EEE17
:105A5000940709F07ACBFFCF069F9001079F300D86
:105A6000169F300D1124C801880F991F880F991FA8
:105A7000880F991FC0CAEBE0EE16F10408F495C830
:105A8000ADECBCEC0E94E53296958795969587958E
:105A9000969587959C01220F331F880F991F880FB9
:105AA000991F880F991F280F391F7FC8E091C002E6
:105AB000EF3F09F028CA4DCABBE41B02B001112414
:105AC000072E000C880B990B0E944C316AA77BA70C
:105AD0008CA79DA7E5EB1E02B0011124072E000C38
